{
  "_format": "hh-sol-artifact-1",
  "contractName": "AuthContract",
  "sourceName": "contracts/AuthContract.sol",
  "abi": [
    {
      "anonymous": false,
      "inputs": [
        {
          "indexed": false,
          "internalType": "string",
          "name": "email",
          "type": "string"
        },
        {
          "indexed": false,
          "internalType": "bool",
          "name": "success",
          "type": "bool"
        }
      ],
      "name": "UserLoggedIn",
      "type": "event"
    },
    {
      "anonymous": false,
      "inputs": [
        {
          "indexed": false,
          "internalType": "string",
          "name": "email",
          "type": "string"
        },
        {
          "indexed": false,
          "internalType": "bytes32",
          "name": "hash",
          "type": "bytes32"
        }
      ],
      "name": "UserRegistered",
      "type": "event"
    },
    {
      "inputs": [
        {
          "internalType": "string",
          "name": "email",
          "type": "string"
        },
        {
          "internalType": "bytes32",
          "name": "hash",
          "type": "bytes32"
        }
      ],
      "name": "login",
      "outputs": [
        {
          "internalType": "bool",
          "name": "",
          "type": "bool"
        }
      ],
      "stateMutability": "view",
      "type": "function"
    },
    {
      "inputs": [
        {
          "internalType": "string",
          "name": "email",
          "type": "string"
        },
        {
          "internalType": "bytes32",
          "name": "hash",
          "type": "bytes32"
        }
      ],
      "name": "register",
      "outputs": [],
      "stateMutability": "nonpayable",
      "type": "function"
    }
  ],
  "bytecode": "0x608060405234801561001057600080fd5b5061054a806100206000396000f3fe608060405234801561001057600080fd5b50600436106100365760003560e01c806304f754061461003b578063656afdee1461006b575b600080fd5b61005560048036038101906100509190610305565b610087565b604051610062919061037c565b60405180910390f35b61008560048036038101906100809190610305565b6100b2565b005b60008160008460405161009a9190610408565b90815260200160405180910390205414905092915050565b6000801b6000836040516100c69190610408565b90815260200160405180910390205414610115576040517f08c379a000000000000000000000000000000000000000000000000000000000815260040161010c9061047c565b60405180910390fd5b806000836040516101269190610408565b9081526020016040518091039020819055507fc35e042a15693a6a1a5a1bd7698bcd9e105676d0cc1039eee9dc98bd94b5638982826040516101699291906104e4565b60405180910390a15050565b6000604051905090565b600080fd5b600080fd5b600080fd5b600080fd5b6000601f19601f8301169050919050565b7f4e487b7100000000000000000000000000000000000000000000000000000000600052604160045260246000fd5b6101dc82610193565b810181811067ffffffffffffffff821117156101fb576101fa6101a4565b5b80604052505050565b600061020e610175565b905061021a82826101d3565b919050565b600067ffffffffffffffff82111561023a576102396101a4565b5b61024382610193565b9050602081019050919050565b82818337600083830152505050565b600061027261026d8461021f565b610204565b90508281526020810184848401111561028e5761028d61018e565b5b610299848285610250565b509392505050565b600082601f8301126102b6576102b5610189565b5b81356102c684826020860161025f565b91505092915050565b6000819050919050565b6102e2816102cf565b81146102ed57600080fd5b50565b6000813590506102ff816102d9565b92915050565b6000806040838503121561031c5761031b61017f565b5b600083013567ffffffffffffffff81111561033a57610339610184565b5b610346858286016102a1565b9250506020610357858286016102f0565b9150509250929050565b60008115159050919050565b61037681610361565b82525050565b6000602082019050610391600083018461036d565b92915050565b600081519050919050565b600081905092915050565b60005b838110156103cb5780820151818401526020810190506103b0565b60008484015250505050565b60006103e282610397565b6103ec81856103a2565b93506103fc8185602086016103ad565b80840191505092915050565b600061041482846103d7565b915081905092915050565b600082825260208201905092915050565b7f5573657220616c72656164792065786973747300000000000000000000000000600082015250565b600061046660138361041f565b915061047182610430565b602082019050919050565b6000602082019050818103600083015261049581610459565b9050919050565b60006104a782610397565b6104b1818561041f565b93506104c18185602086016103ad565b6104ca81610193565b840191505092915050565b6104de816102cf565b82525050565b600060408201905081810360008301526104fe818561049c565b905061050d60208301846104d5565b939250505056fea26469706673582212202a58c4c66bc1a445e8b6dca86aa76343665a2f1b6d6d929580db4cb3920ba06a64736f6c63430008140033",
  "linkReferences": {},
  "deployedLinkReferences": {}
}